:100000000C942E000C944B000C944B000C94C502E5
:100010000C944B000C944B000C944B000C94EA0293
:100020000C944B000C944B000C944B000C944B0024
:100030000C944B000C944B000C944B000C944B0014
:100040000C944B000C944B000C944B000C944B0004
:100050000C944B000C944B000C944B0011241FBECD
:10006000CFEFD4E0DEBFCDBF11E0A0E0B1E0E6E32A
:10007000F7E002C005900D92A831B107D9F723E04F
:10008000A8E1B1E001C01D92A534B207E1F70E94DA
:1000900075010C9499030C94000080EC8093E400AB
:1000A0008FE08093E70087EB8093E50087E0809303
:1000B000E6000895CF93DF93CDB7DEB764970FB610
:1000C000F894DEBF0FBECDBF94E1E4E0F1E0DE01C5
:1000D000119601900D929A95E1F76630710580F5C1
:1000E000E82FF0E0F097EE0FFF1F81E090E08C0F1B
:1000F0009D1FE80FF91F20813181FB01F595E795E0
:10010000E451FF4FDB01A170BB2760FF02C04FE04D
:1001100001C040EFBF016C5E7F4F822F8F7094E073
:10012000369527959A95E1F7109711F08295807F83
:1001300090819423892B808335966E177F0769F70A
:1001400064960FB6F894DEBF0FBECDBFDF91CF919E
:1001500008958F929F92AF92BF92CF92DF92EF92CB
:10016000FF924B015C0182E0C82ED12CE12CF12CD6
:100170009601A701C814D904EA04FB047CF48FEFAC
:10018000C81AD80AE80AF80AC501B4010E94170380
:10019000672B682B692B61F780E001C081E0FF903D
:1001A000EF90DF90CF90BF90AF909F908F90089589
:1001B0008F929F92AF92BF92CF92DF92EF92FF9277
:1001C000CF93DF934B015C01EA0188E191E00E944B
:1001D0007902D0932301C0932201C501B40124E622
:1001E00030E040E050E00E9417032AE0C22ED12CFC
:1001F000E12CF12CA70196010E941703BE0180E3B8
:10020000820F0E945A00C0912201D09123012196B1
:10021000D0932301C0932201C501B401A701960127
:100220000E941703862FBE01805D0E945A0088E15C
:1002300091E0DF91CF91FF90EF90DF90CF90BF9052
:10024000AF909F908F900C94A0028C0180E885B9AC
:1002500081E0C0E0D0E0882361F01F990AC02196B8
:10026000BE010D2E000C880B990BA8010E94D8002E
:1002700080E01F9BF0CF81E0F0CFEC01C12CD12CAE
:100280007601C394C701B6010E94A900882329F012
:10029000AE01C701B6010E94D8008FEFC81AD80A74
:1002A000E80AF80AEFCF60911C0170911D01072E3A
:1002B000000C880B990B43E050E00E94D80081E0CD
:1002C00020911C0130911D0124313105ECF3109275
:1002D0001D0110921C019091EF00992319F01092CA
:1002E000EF00EECF8093EF00EBCFE1E6F0E080E8A7
:1002F000808310820E944D0060E070E08DE391E009
:100300000E94C20163E070E085E291E00E94C201B8
:100310000E945301DC0115961C921E921497DB017A
:10032000ED91FC911197309719F48D939C9308955A
:10033000248135812115310511F0F901F9CF95831B
:1003400084830895CF93DF9300D0CDB7DEB79A832F
:100350008983809100019091010106960E945803C3
:10036000892B59F489819A8190930101809300012E
:1003700061E070E006960E9478030F900F90DF9185
:10038000CF910895CF93DF9300D0CDB7DEB7F89427
:1003900020911E0130911F01232BA1F52EEF31E09A
:1003A00030939601209395012BE632E030930302BF
:1003B0002093020228ED32E03093700220936F0206
:1003C0001092DD021092DC0220E825B92DBB2093AB
:1003D0006C0020EC209380002DE02093810027E822
:1003E00031E03093890020938800109285001092AC
:1003F000840022E020936F0021E030E030931F0161
:1004000020931E0120910201309103013A83298338
:1004100021153105A1F0F9012481358130930301C3
:1004200020930201918380837383628315821482F7
:10043000CF0106960E945803019749F501C0FFCFEE
:100440007894A0910001B0910101ED91FC91119778
:1004500012968D919C9113970995F89462E071E042
:1004600080910001909101010E948A0180912001F8
:1004700090912101009751F0FC0124813581309346
:100480002101209320010E94A20101C0FFCFE98138
:10049000FA81369689819A8187599F4F918B808BFB
:1004A000938B828B60E271E089819A810E948A013C
:1004B00078940F900F90DF91CF910895789460E237
:1004C00071E080910001909101010E948A01809168
:1004D000200190912101009759F0FC012481358180
:1004E00030932101209320010E94A201F8940895E5
:1004F000FFCFF894FC0120813181232B29F421E0E6
:1005000030E0318320831AC0BC016E5F7F4F809141
:100510000001909101010E948A0180912001909137
:100520002101009751F0FC01248135813093210194
:10053000209320010E94A20101C0FFCF789408956A
:10054000CF93DF93F894FC0122813381232BB1F008
:10055000EC0160E271E080910001909101010E9444
:100560008A018A819B81009741F0FC0124813581B9
:100570003B832A830E94A20104C0FFCFFC011182A9
:1005800010827894DF91CF9108951F920F920FB649
:100590000F9211242F933F934F935F936F937F9309
:1005A0008F939F93AF93BF93EF93FF931F9B0E94F3
:1005B0005E02FF91EF91BF91AF919F918F917F91DB
:1005C0006F915F914F913F912F910F900FBE0F90C0
:1005D0001F9018951F920F920FB60F9211242F9310
:1005E0003F934F935F936F937F938F939F93AF93BB
:1005F000BF93EF93FF930E945E0280911C01909144
:100600001D01019690931D0180931C01FF91EF91B4
:10061000BF91AF919F918F917F916F915F914F911A
:100620003F912F910F900FBE0F901F901895052EA0
:1006300097FB1EF400940E942E0357FD07D00E94E2
:10064000360307FC03D04EF40C942E0350954095CE
:10065000309521953F4F4F4F5F4F0895909580956E
:10066000709561957F4F8F4F9F4F0895A1E21A2E8D
:10067000AA1BBB1BFD010DC0AA1FBB1FEE1FFF1F46
:10068000A217B307E407F50720F0A21BB30BE40B96
:10069000F50B661F771F881F991F1A9469F76095DD
:1006A0007095809590959B01AC01BD01CF01089597
:1006B000DC012D923D924D925D926D927D928D92D4
:1006C0009D92AD92BD92CD92DD92ED92FD920D93F1
:1006D0001D93CD93DD93FF91EF918DB78D938EB7E1
:1006E0008D938FB78D93ED93FD9388279927099468
:1006F000DC01CB0181309105811D2D903D904D9005
:100700005D906D907D908D909D90AD90BD90CD90C1
:10071000DD90ED90FD900D911D91CD91DD91ED91CC
:10072000FD910D90F894FEBF0FBEEDBFED91FD91D0
:060730000994F894FFCFCC
:100736002401910151151001111E111B500B411B73
:08074600411F1101511F510B6D
:00000001FF
